:02000004080AE8
:1000000000000A0868490A08000006000600050109
:080010000402290500000000B4
:04001800E0200A08D2
:10001C0009480A4908B5884205D0094A824202D0EB
:10002C00121A02F009F80748074A0021121A02F0C6
:10003C000EF8064808BD00BF00000020D4480A088E
:10004C006C0000206C0000203806002038060020D0
:10005C0070B501F0A7FD074B074C1E46E41AA40827
:10006C000025A54204D056F8253098470135F8E70D
:10007C0070BD00BF8C480A08CC480A0800F060B874
:10008C0008B500F0E3F8BDE8084001F04DBD00F004
:10009C00B1BF000008B5034A00210C2000F016FF88
:1000AC00FEE700BF350C0A080078B0FA80F0400972
:1000BC0070470123037070477047000010B51D494D
:1000CC00044601F022FBA0B100211B4801F0B3F95A
:1000DC000121072001F0C7FD642000F0A7FF1921C2
:1000EC00154801F0A8F90021072001F0BCFD012002
:1000FC0010BD1249204601F008FBD0B103240021A9
:10010C000D4801F098F90121072001F0ACFD6420A5
:10011C0000F08CFF1921084801F08DF9002107200F
:10012C0001F0A1FD4FF47A7000F080FF013CE6D1A4
:10013C00022010BDF4200A0870000020F8200A08E4
:10014C0073B53C4C4FF6E076204600F0D1F92046D2
:10015C00002100F0DBF800221146204600F040FDA3
:10016C0020464FF6FF7100F03EFD2046012100F0C5
:10017C003DFD3149204601F0CDF8204600F039FD17
:10018C000546204600F038FD013800226B1E00B2F7
:10019C0011461BB200900196204600F0F1FA204661
:1001AC0000F027FD0546204600F026FD013800230F
:1001BC00691E00B21A46009009B22046019600F062
:1001CC00DFFA204600F018FD022290FBF2F24FF409
:1001DC00FC6312B20021204600F09EFA01F0B0FB45
:1001EC004FF4165101F092FB144C154A1549164860
:1001FC0000F03EFF0022B4238DE80C0001214FF4E7
:10020C0016634FF40872204601F054F92046192168
:10021C0001F011F90121072001F014FD0121052045
:10022C0001F010FD0121052002B0BDE8704001F085
:10023C001ABD00BF80000020FE200A0870000020BC
:10024C008C210A08C9000A0851100A0837B5194B45
:10025C00188801F021FD6328044601DC002114E01C
:10026C007F234FF4C86264210093002300F0D2FE78
:10027C00054601F065FB104901F04CF801F060FBFC
:10028C0029460A2201F0A7F829460C4801F0D3F8B8
:10029C00322000F0CBFE01F053FB094901F03AF893
:1002AC0001F04EFB21460A2203B0BDE8304001F0BC
:1002BC0092B800BF0000002091210A0870000020B5
:1002CC0095210A0810B50446302101F05CFD20464A
:1002DC0010BD000010B5094C00F0B6FC084801F048
:1002EC00D5F800220C2120460A2300F023F82046E2
:1002FC00BDE81040034A044901F040BD80000020D5
:10030C00700000206C000020C5000A0813B5B0F97D
:10031C000E200468019100920022B0F90C30646A3E
:10032C001146A04702B010BD0146014801F070B95A
:10033C0078050020F8B504461D460F461646802168
:10034C00A02200F08BFB064B84F82B70236001235A
:10035C0084F82C6084F82D5084F82A302046F8BD9F
:10036C00AC210A0838B504460D4690F82C00002143
:10037C0001F079FC002194F82B0001F074FC284664
:10038C00FFF7D2FF94F82B000121BDE8384001F0B3
:10039C006ABC002914BF21212021FFF7E3BF38B527
:1003AC0004460D4690F82C00012101F05CFC002164
:1003BC0094F82B0001F057FC2846FFF7B5FF94F892
:1003CC002B000121BDE8384001F04DBC2DE9F04770
:1003DC0080460F784C1C47B32646404616F8021B45
:1003EC00FFF7C0FF6578B24625F07F0905F07F0561
:1003FC002C465FFA89F9013CE4B2FF2C05D01AF8BF
:10040C00011B4046FFF7CBFFF5E77419B9F1000F5C
:10041C0002D1013FFFB2DEE7705D0134FF2808BF57
:10042C004FF4FA7000F002FEF3E7BDE8F08700002D
:10043C0070B50446002580F82F5080F82E500E46DB
:10044C0090F82C00012101F0FDFB012194F82B0008
:10045C0001F0F8FB254801F075F80821234801F05C
:10046C00C3F80121214801F072F829461F4801F018
:10047C0071F894F82A3053B11C4801F063F801214B
:10048C001A4801F064F82946184801F063F894F80A
:10049C002B00002101F0E7FB94F82D00E8B10121BD
:1004AC0001F0D0FB012194F82D0001F0DCFB4FF49E
:1004BC00FA7000F0BBFD002194F82D0001F0D3FB85
:1004CC004FF4FA7000F0B2FD94F82D00012101F008
:1004DC00CAFB4FF4FA7000F0A9FD2EB1314620464C
:1004EC00BDE87040FFF772BF70BD00BF78050020FB
:1004FC000149FFF79DBF00BFE0210A082DE9F0413B
:10050C00044688461F4616462A219DF81850FFF7C8
:10051C0029FF20460021FFF742FF94F82E102046B9
:10052C004144C9B2FFF73BFF20460021FFF737FFDC
:10053C0094F82E1020463944C9B2FFF730FF2046FC
:10054C002B21FFF70FFF20460021FFF728FF94F81F
:10055C002F1020463144C9B2FFF721FF204600215D
:10056C00FFF71DFF94F82F1020462944C9B2FFF75E
:10057C0016FF2046BDE8F0412C21FFF7F3BEF7B57E
:10058C001C46B0F90C3005468B42BDF8207031DDAD
:10059C00B0F90E0090422DDD13198342C8BF841AA6
:1005AC00D2B2C8BF24B2561E2644CBB2F6B21946FC
:1005BC0000962846FFF7A2FF012195F82C0001F0C8
:1005CC0052FB002195F82B003E0AFFB201F04BFBC9
:1005DC00A4B23CB13046FFF7A7FE3846FFF7A4FEA5
:1005EC00013CF5E795F82B00012103B0BDE8F04084
:1005FC0001F039BB03B0F0BDF7B51C46B0F90C30B7
:10060C0005468B42BDF8206030DDB0F90E009042FB
:10061C002CDD08199842C8BF5C1AC9B2C8BF24B2F5
:10062C004B1ED2B223440092DBB22846FFF766FF82
:10063C00012195F82C0001F016FB002195F82B00F8
:10064C00370AF6B201F00FFBA4B23CB13846FFF703
:10065C006BFE3046FFF768FE013CF5E795F82B0082
:10066C00012103B0BDE8F04001F0FDBA03B0F0BDCC
:10067C002DE9F7430546B0F90C001E468842BDF93A
:10068C002840BDF82C7044DDB5F90E30934240DDA6
:10069C0001EB060E8645C8BF461A02EB0400C8BF24
:1006AC0036B29842C8BF9C1AD2B2C8BF24B2C9B2E3
:1006BC00501E4B1E2044C0B233440090DBB228467F
:1006CC00FFF71CFF012195F82C0001F0CCFA00215A
:1006DC0095F82B004FEA17285FFA87F901F0C3FA57
:1006EC00002C0EDD3746002F08DD4046FFF71CFEC0
:1006FC00013F4846FFF718FE3FB2F4E7013C24B235
:10070C00EEE795F82B00012103B0BDE8F04301F0B2
:10071C00AABA03B0BDE8F08373B5002904461E469F
:10072C002ADBB0F90C308B4226DD002A24DBB0F931
:10073C000E30934220DDD2B2551CC9B24B1CEDB227
:10074C00DBB20095FFF7DAFE94F82C00012101F0E2
:10075C008AFA002194F82B0001F085FA300AFFF791
:10076C00E3FDF0B2FFF7E0FD94F82B00012102B09D
:10077C00BDE8704001F077BA02B070BD00F064BA09
:10078C002DE9F04F1E4685B0BDF9383015469A1A42
:10079C00002AB8BF52420092721A002AB8BF5242C5
:1007AC0001920C46009A019981468A42BDF83CA000
:1007BC0005DD32461E46134622462C461546B442EB
:1007CC0005DD2A461D4613462246344616465A1B5C
:1007DC00002AC4EB0608B8BF52421FFA88F80392ED
:1007EC000FFA88F702229D42B4BF01234FF0FF336A
:1007FC0097FBF2F70293B4421FDC019A009B484628
:10080C009342D9F80030C8BF2246D3F810B0C8BF05
:10081C0029465346DCBF2A462146D847039BFF1A7C
:10082C00BBB21FB2002F05DA029A08EB030715447E
:10083C002DB23FB2013424B2DDE705B0BDE8F08F34
:10084C002DE9F347044691460D469846BDF82C60B9
:10085C000768BDF928A00096FF69B84723680AF11C
:10086C00FF3200964A44DF6929464346204612B2BD
:10087C00B847236800969F694A4653462946204646
:10088C00B847236808F1FF310A9629449D694A4606
:10089C0053462046AC4609B202B0BDE8F04760476B
:1008AC0037B5013BBDF81850134404681BB20093D4
:1008BC00019564690B46A04703B030BD37B5BDF850
:1008CC00185004688DE82400013B0B4464691BB28A
:1008DC00A04703B030BD2DE9F347054617460C463B
:1008EC00BDF92880BDF82C9001EB030A54450BDAB6
:1008FC002B68CDF800909E69214643463A4628461F
:10090C000134B04724B2F1E702B0BDE8F08713B56B
:10091C00B0F90E200468019100920022B0F90C305D
:10092C00646A1146A04702B010BD7047F0B50A29A1
:10093C0085B004460D4607D1436A027E5978438A36
:10094C0001FB0233438249E00D2949D0067E03683E
:10095C00B0F91220B0F910100296C68A0196868A58
:10096C0000961E6B2B46B047E37E94F91DE0ED1A02
:10097C00636ABEF1000F03EB850213F8256055780E
:10098C0015DDE08AA38A834211D0237E0190218A4F
:10099C0003FB05F006FB031100B227680090B4F9C5
:1009AC0012207F6A0EFB03F309B22046B847227E61
:1009BC0094F91D30208A91B2334403FB010394F85F
:1009CC0028001BB2238258B1B4F90C0006FB1202AA
:1009DC00934205DD638A01FB053565820023238282
:1009EC00012005B0F0BD00008176032913D8DFE8A3
:1009FC0001F002060A0E0F4B03620F4B10E00F4B77
:100A0C0003620F4B0CE00F4B03620F4B08E00F4BD4
:100A1C0003620F4B04E0042383760E4B03620E4BF0
:100A2C00436201234377036A1A78C2765B780377B3
:100A3C00704700BF4A410A08CE3F0A08D62F0A0861
:100A4C00523A0A087A2A0A085A2E0A0824340A0842
:100A5C00D6380A0880220A08CE3B0A084281C28195
:100A6C004FF6FF7238B50023084D4360437603827E
:100A7C00438201230181818105600376C2828282D7
:100A8C0080F828300421FFF7AFFF38BD4C220A084C
:100A9C002DE9F04F8BB09246BDF8502004460492DD
:100AAC00BDF854200D460592C27E9DF858609A42BE
:100ABC0005D8017F994202D39B1ADBB200E00023D8
:100ACC00B4F90C20AA427BDDB4F90E20524577DD37
:100ADC00616A9A0011F82330079206FB0353002B2E
:100AEC000A446DDD537806FB03A3002B68DD5388A5
:100AFC000FFA86F802339BB2029300230393B3B22E
:100B0C000693626A07999DF90C300A445278934215
:100B1C0056DA06999BB21FFA8AF203FB01211344A1
:100B2C0009B21BB208914FF000090993626A079849
:100B3C004FFA89F1125C5FFA89F391423CDA5A0759
:100B4C0006D1029B0298226A01339BB2175C029376
:100B5C003B060DD5012E05D123682944D3F810B0DE
:100B6C00049B10E0069B049A01FB0351236814E0DC
:100B7C00049B059A93421AD0012E09D1236829446B
:100B8C00D3F810B01346099A09B22046D8470EE0A4
:100B9C00069B059A01FB035123680192CDF8008056
:100BAC00D3F824B0089A434609B22046D8477F00B0
:100BBC00FFB209F10109B9E7039B01330393A0E7E5
:100BCC000BB0BDE8F08F70B4BDF80C40BDF8105000
:100BDC009DF8146004950596039470BCFFF758BFFC
:100BEC00018242827047C1828182704780F828104E
:100BFC007047B0F90C007047B0F90E00704700F068
:100C0C0023B800F021B8000008B5024B1B681B6B21
:100C1C00019308BDD001060808B5024B1B685B6840
:100C2C00019308BD9C01060808B5024B1B68DB68E4
:100C3C00019308BD9C01060808B5024B1B685B6953
:100C4C00019308BD9C01060808B5024B1B681B6884
:100C5C00019308BDB001060808B5024B1B685B6820
:100C6C00019308BDB001060808B5024B1B689B68D0
:100C7C00019308BDB001060808B5024B1B68DB6880
:100C8C00019308BDB001060808B5024B1B681B692F
:100C9C00019308BDB001060808B5024B1B681B6B1D
:100CAC00019308BDB001060808B5024B1B681B6E0A
:100CBC00019308BDAC01060808B5024B1B685B6EBE
:100CCC00019308BDAC01060808B5024B1B689B6E6E
:100CDC00019308BDAC01060808B5024B1B68DB6E1E
:100CEC00019308BDAC01060808B5024B1B681B6FCD
:100CFC00019308BDAC01060808B5024B1B685B6F7D
:100D0C00019308BDAC01060808B5034B1B68D3F86A
:100D1C008030019308BD0000AC01060808B5024BF9
:100D2C001B681B69019308BDA801060808B5024B96
:100D3C001B685B69019308BDA801060808B5024B46
:100D4C001B689B69019308BDA801060808B5024BF6
:100D5C001B681B68019308BDB401060808B5024B5B
:100D6C001B689B68019308BDB401060808B5024BCB
:100D7C001B68DB68019308BDB401060808B5024B7B
:100D8C001B681B69019308BDB401060808B5024B2A
:100D9C001B685B69019308BDB401060808B5024BDA
:100DAC001B68DB69019308BDB401060808B5024B4A
:100DBC001B681B6A019308BDB401060808B5024BF9
:100DCC001B685B6A019308BDB401060808B5024BA9
:100DDC001B689B69019308BDC401060808B5024B4A
:100DEC001B685B6A019308BDC401060808B5024B79
:100DFC001B689B6A019308BDC401060808B5024B29
:100E0C001B68DB6A019308BDC401060808B5024BD8
:100E1C001B681B6B019308BDC401060808B5024B87
:100E2C001B685B6B019308BDC401060808B5024B37
:100E3C001B689B6B019308BDC401060808B5024BE7
:100E4C001B681B6C019308BDC401060808B5024B56
:100E5C001B681B68019308BDD801060808B5024B36
:100E6C001B685B68019308BDD801060808B5024BE6
:100E7C001B681B69019308BDD801060808B5024B15
:100E8C001B685B69019308BDD801060808B5024BC5
:100E9C001B689B69019308BDD801060808B5024B75
:100EAC001B68DB69019308BDD801060808B5024B25
:100EBC001B681B6A019308BDD801060808B5024BD4
:100ECC001B689B6C019308BDC001060808B5024B5A
:100EDC001B685B6B019308BDA801020808B5024BA7
:100EEC001B685B68019308BDA401060808B5024B9A
:100EFC001B685B69019308BDA401060808B5034B88
:100F0C001B68D3F89030019308BD0000A4010608BB
:100F1C0008B5034B1B68D3F89C30019308BD000047
:100F2C00A401060808B5024B1B685B68019308BD59
:100F3C00CC01060808B5024B1B68DB6B019308BD9E
:100F4C00CC01060808B5024B1B685B68019308BD11
:100F5C00C801060808B5024B1B689B68019308BDC5
:100F6C00C801060808B5024B1B68DB68019308BD75
:100F7C00C801060808B5024B1B681B69019308BD24
:100F8C00C801060808B5024B1B685B69019308BDD4
:100F9C00C801060808B5024B1B689B69019308BD84
:100FAC00C801060808B5024B1B68DB69019308BD34
:100FBC00C801060808B5024B1B681B6A019308BDE3
:100FCC00C801060808B5024B1B681B6B019308BDD2
:100FDC00C801060808B5024B1B685B6B019308BD82
:100FEC00C801060808B5024B1B681B68019308BDB5
:100FFC00A001060808B5024B1B685B68019308BD8D
:10100C00A001060808B5024B1B689B68019308BD3C
:10101C00A00106088A4230B507D0039D441AED1A88
:10102C006C43521A94FBF2F4E01830BD0021FFF728
:10103C005DBF10B58368044613B10322014698477F
:10104C00204610BD10B588B00446684600F030FB51
:10105C00694604A800F04EFB04A8A047044604A867
:10106C0000F0DFFA684600F0DCFA204608B010BD4C
:10107C00F0B507460E46154685B0102422460021D1
:10108C00684600F0E4FF002269461046ADF80040C7
:10109C00029703960195FFF745FF05B0F0BD704729
:1010AC00F8B5064615460C468F18BC4206D0336878
:1010BC0014F8011B9B6830469847F6E72846F8BDA4
:1010CC000022007CFFF7F0BD0021007CFFF7F4BD8F
:1010DC000021007CFFF7F8BD0021007CFFF7FCBD70
:1010EC000021007CFFF700BE10B50446142100F06F
:1010FC004AFE204610BD000010B5044608464FF4C9
:10110C007A73A360044B0021207461602360FFF7A5
:10111C00FBFD204610BD00BF04460A080021007CE0
:10112C00FFF7EABD704710B50446182100F02BFEFE
:10113C00204610BDF8B50F4600F10806051D002429
:10114C0016F8011D0A22384600F021F9AE4204447B
:10115C0007D0002CF4D02E21384600F0DFF80444E0
:10116C00EEE72046F8BD000010B50446044B1122F2
:10117C0040F8043B002100F06AFF204610BD00BF80
:10118C002C460A080346074A10B543F8042B01F114
:10119C00100251F8044B914243F8044BF9D10A78F0
:1011AC001A7010BD2C460A08024A416002600422E3
:1011BC00027570472C460A0810B59DF8084044EAA1
:1011CC00032343EA024242EA0161042341600375AE
:1011DC0010BD000037B5044D05609DF81850009502
:1011EC00FFF7EAFF03B030BD2C460A08014A024B58
:1011FC001A607047F3460A08B000002000231A4614
:10120C004068FFF79FBE002202214068FFF7AABE8C
:10121C00002211464068FFF79DBE0022114640682F
:10122C00FFF7A8BE00231A4619464068FFF7AABE6E
:10123C0000231A4619464068FFF7ACBE002281F025
:10124C0001014068FFF7AEBE00224068FFF7BABE4E
:10125C00002211464068FFF7BDBE002211464068CF
:10126C00FFF7A8BE70B516468EB0044608A8FFF767
:10127C007BFF1122002103A800F0E9FE304600F0AC
:10128C0021FF00250A4B009581B25B6803AA30460A
:10129C00FFF714FE20B129462046FFF785FF03E037
:1012AC0003A92046FFF76EFF20460EB070BD00BFAD
:1012BC0034050020024B034A1A6000225A60704722
:1012CC00B400002024470A08F8B506460D468F18CE
:1012DC000024BD420CD0336815F8011B9B683046C6
:1012EC009847002801DB0444F3E7002C08BF0446B0
:1012FC002046F8BD70B505460C46084649B100F0CD
:10130C00E1FE2B68024621462846BDE87040DB68AA
:10131C00184770BD08B5FFF7EDFF08BD03689B6863
:10132C00184738B50D210546FFF7F8FF0A2104468A
:10133C002846FFF7F3FF204438BD012A98BF0A2244
:10134C0030B50B468BB000218DF824100DF1230421
:10135C00B3FBF2F505FB1233DBB2092B94BF303330
:10136C003733DBB2214604F801392B46002DEFD17F
:10137C00FFF7C0FF0BB030BD10B422B90368C9B27F
:10138C009B6810BC1847D2B210BCFFF7D6BFFFF752
:10139C00F3BF2DE9F04107460E4615462AB9BDE8C4
:1013AC00F0410368C9B29B6818470A2A02D1002988
:1013BC0001DA04E0D2B2BDE8F041FFF7BEBF2D2147
:1013CC00FFF7ACFF2A46044671423846FFF7B5FFDB
:1013DC002044BDE8F08138B50546FFF7DAFF044636
:1013EC002846FFF79EFF204438BD10B50446FFF792
:1013FC0020FE204610BD0000034800238360034AF2
:10140C00034900F0BBBC00BFBC0000206C000020F6
:10141C00F7130A08B0F90020531C0BD043888088BE
:10142C008B4203D88842034628BF0B46194690B21C
:10143C00FFF784BC704737B504460846B4F906106C
:10144C00B4F90820814203DC9042A8BF104600E0AA
:10145C000846A58863880095FFF7DCFDE168014428
:10146C00204689B203B0BDE83040FFF7D3BF4FF63A
:10147C00FF73B42202814FF4087203804280002370
:10148C004FF41662C3808280C360704708B5FFF7C3
:10149C00EEFF08BD10B50446B0F90000431C07D0A0
:1014AC0080B2FFF743FC2046FFF7E1FF012010BD9F
:1014BC00002010BD2DE9F0410D46044602212846BE
:1014CC0090461F46FFF7C8FB022801D0002619E002
:1014DC00284600F093FB06460028F7D0B4F90030FC
:1014EC00013302D02046FFF7D5FFBDF91830258017
:1014FC00E380BDF91C30A4F80280A7802381284624
:10150C00FFF70CFC3046BDE8F081704710B504467F
:10151C00102100F038FC204610BD000070B50446C8
:10152C000E46074B0025036040F80C5FFFF76CFB81
:10153C0030462671FFF732FCA560204670BD00BF17
:10154C0058470A084FF6FF710079FFF7FFBB007987
:10155C00FFF704BC0079FFF709BC0000054A002323
:10156C00995C814202D00133082BF9D1581CC0B2CE
:10157C00704700BF60470A08400830B51860002467
:10158C001868E5B2884206D90134082C02D040080C
:10159C001860F5E70725024B5B5D137030BD00BF8B
:1015AC0060470A0870B5044602FB01F588B006795D
:1015BC001422002103A800F04AFD0B2303A9304696
:1015CC000022ADF80C30FFF7F9FB02AB0DF107026E
:1015DC0029460498FFF7D0FF20799DF80710FFF7F4
:1015EC00CDFB029808B070BD38B50446A568084616
:1015FC004DB1FFF7B3FF012225FA00F12046BDE8FB
:10160C003840FFF7CFBF2079BDE83840FFF7B6BBB5
:10161C0008B50079FFF7BAFBC0B208BD0079FFF737
:10162C00C5BB10B504460068FFF7E4FC204610BDAE
:10163C0010B50446006808B1FFF7DCFC00232360FA
:10164C00A360636010BD38B504460D4600680131D7
:10165C00FFF7D8FC10B184E82100012038BD10B58B
:10166C000368044613B143688B4207D22046FFF748
:10167C00EAFF20B1A3680BB922681370012010BDDA
:10168C0070B50E46114604461546FFF7E8FF18B92B
:10169C002046FFF7CDFF09E02A463146A5602068B9
:1016AC0000F0CAFC2268A3680021D154204670BD0A
:1016BC0038B50023044603604360836003730D4612
:1016CC0039B1084600F0FEFC294602462046FFF7D9
:1016DC00D7FF204638BD884210B50B46044607D0CC
:1016EC00096819B19A68FFF7CBFF01E0FFF7A0FF7B
:1016FC00204610BD10B50446002303604360836090
:10170C000373FFF7E8FF204610BD08B582680B464F
:10171C0012B919B9012008BD11B90368187802E093
:10172C00006800F0C5FCB0FA80F0400908BD00006C
:10173C004FF6FF72034B0020187058809A80FFF709
:10174C00CDBB00BFCC000020024B1A68024B1A60C4
:10175C00704700BF04000020D40000207047417483
:10176C00704708B5007CFFF769FB20EAE07008BD04
:10177C0008B5007CFFF73AFB20EAE07008BD08B51D
:10178C00007CFFF743FB30EA200028BF4FF0FF300E
:10179C0008BD08B5007CFFF731FB30EA200028BFFC
:1017AC004FF0FF3008BD007CFFF738BB10B5044686
:1017BC00142100F0E8FA204610BD70B5457C0446B3
:1017CC000E4625B9007CFFF739FB002805DD3146B4
:1017DC00207CBDE87040FFF701BB284670BD0000BF
:1017EC0010B5044608461146002262604FF47A7226
:1017FC00A260054A20742260012262741A46FFF727
:10180C00E5FA204610BD00BF9C470A08007CFFF794
:10181C000DBB000038B50C4D296811F0010411D135
:10182C002846FEF741FC68B1084A2146084B094896
:10183C00FFF7D6FF2846FEF73CFC074A0749054848
:10184C0000F09CFA034838BD7001002074010020A0
:10185C00EC000020D80000206C00002069170A085A
:10186C0041747047704708B50021007CFFF70EFBF0
:10187C0030EA200028BF4FF0FF3008BD08B5012129
:10188C00007CFFF703FB30EA200028BF4FF0FF304D
:10189C0008BD08B5007CFFF7F1FA20EAE07008BD3E
:1018AC0008B5007CFFF7E2FA20EAE07008BD007C86
:1018BC00FFF7FCBA10B50446142100F064FA204678
:1018CC0010BD38B50446007C0D46FFF7D7FA00284A
:1018DC0001DC607C28B12946207CFFF7DFFA20EA86
:1018EC00E07038BD10B50446002363604FF47A7382
:1018FC00A360054B084623600123217463741146D1
:10190C00FFF7A4FA204610BDCC470A080022007C41
:10191C00FFF7A4BA10B504461422002100F097FB7F
:10192C00054B20466360054BE36040F201132381B5
:10193C008123238210BD00BF7D020020FC0100200A
:10194C0030B50E4D87B001A8FFF7E4FF296811F000
:10195C00010410D12846FEF7A7FB60B101AA21466D
:10196C000748FFF7BFFF2846FEF7A3FB054A0649C9
:10197C00034800F003FA024807B030BDF80100201C
:10198C00800300206C00002071180A0810B5044672
:10199C001422002100F05BFB054B20466360054BD5
:1019AC00E36040F2011323818123238210BD00BF29
:1019BC00300400209803002010B50E4C86B001A80E
:1019CC00FFF7E4FF2368DB0710D42046FEF76CFB1F
:1019DC0060B101AA01210848FFF784FF2046FEF7F9
:1019EC0068FB064A0649044800F0C8F9024806B0EC
:1019FC0010BD00BF940300201C0400206C000020CC
:101A0C0071180A08002211464068FFF7B3BAF0B506
:101A1C00164689B011220F460446002103A800F097
:101A2C0016FB304600F04EFB0025009581B27B681A
:101A3C0003AA3046FFF742FA20B129462046FFF7A9
:101A4C00B3FB03E003A92046FFF79CFB204609B03B
:101A5C00F0BD002211464068FFF7ACBA00221146D7
:101A6C004068FFF7B7BA00224068FFF7ABBA002214
:101A7C0081F001014068FFF795BA00231A46194618
:101A8C004068FFF787BA00231A4619464068FFF7EB
:101A9C0079BA002211464068FFF75CBA0022022195
:101AAC004068FFF75FBA00231A464068FFF74ABA4E
:101ABC00024B04225A60024A1A6070473405002017
:101ACC00FC470A0808B5144B33B1FFF739FF03681C
:101ADC001B699847002816DC104B33B1FFF79AFEB0
:101AEC0003681B699847002810DC0D4B0BB1AFF352
:101AFC0000800C4B7BB1FFF75FFF03681B699847B5
:101B0C00002806DC08BDAFF30080E5E7AFF30080EA
:101B1C00EBE7AFF3008008BD000000000000000000
:101B2C00000000000000000008B5FFF7CBFFFFF736
:101B3C0083F8014B186008BD440500200248034A95
:101B4C000349121A00F078BA0040024004400240E7
:101B5C00D0480A0807B5002300931A466FF07701A6
:101B6C00FFF7D6F903B05DF804FB000007B5438816
:101B7C000A2B08D0502B09D1094B1B683BB103B081
:101B8C005DF804EB1847FFF7E5FF06E00023009330
:101B9C001A466FF07701FFF7BBF903B05DF804FB51
:101BAC003C05002038B5104C104D2368AB42104B4F
:101BBC000CBF012200221A7002D0FFF7BFFF256074
:101BCC00FFF72AF8044600F04BFA0A4B13B12046F3
:101BDC00AFF3008000210748FFF7ACF9BDE83840AF
:101BEC0000210548FFF78AB9004002401E1C279AC5
:101BFC004005002000000000791B0A0810B50446BF
:101C0C000F48FFF70BFD28B1A4F10D03022B01D8EF
:101C1C00002010BD00F058F8FFF780FA08B1012C35
:101C2C00F6D9FFF7F7FDFFF7F1FD18B1A4F1120398
:101C3C00012BEDD9172C8CBF0020012010BD00BF4B
:101C4C0078050020172838B504460D460AD8FF2918
:101C5C0008D0FFF7D3FF28B129462046BDE838400D
:101C6C00FFF702B838BD38B504460D46FFF704F847
:101C7C00FF2810D0062804D84D2323FA00F0C30700
:101C8C0009D42046FFF7BAFF28B129462046BDE803
:101C9C003840FEF7F9BF38BD10B5044609289CBF83
:101CAC000A34A4B22046FFF7A9FF50B10321204605
:101CBC00FEF7D2FF032804D12046BDE81040FEF702
:101CCC00EBBF002010BD000038B50B4D296811F09A
:101CDC0001040FD12846FEF7E7F958B12146074811
:101CEC00FFF70AFA2846FEF7E4F9054A05490348C6
:101CFC0000F044F8014838BD480500204C05002090
:101D0C006C000020AB100A0813B5084C00231A46CF
:101D1C00194600932046FFF75DFA2046044A054910
:101D2C0002B0BDE8104000F029B800BF60050020EB
:101D3C006C00002031110A0870B50C4C0C4E0D4D86
:101D4C0000212046FFF7EAFB20460B4C3246294681
:101D5C0000F014F801212046FFF7E0FB324629463B
:101D6C002046BDE8704000F009B800BF780500209F
:101D7C006C00002017150A08880500200B46014648
:101D8C00184600F04BB9FEF782B90000244B1A68D4
:101D9C00D0075CBF01221A60224B1A68D1075CBFC6
:101DAC0001221A60204B1A68D2075CBF01221A600C
:101DBC001E4B1A68D0075CBF01221A601C4B1A68B4
:101DCC00D1075CBF01221A601A4B1A68D2075CBF9C
:101DDC0001221A60184B1A68D0075CBF01221A60E6
:101DEC00164B1A68D1075CBF01221A60144B1A6893
:101DFC00D2075CBF01221A60124B1A68D0075CBF75
:101E0C0001221A60104B1A68D1075CBF01221A60BC
:101E1C000E4B1A68D2075CBF01221A60704700BFD4
:101E2C00C4050020C0050020BC050020B80500201A
:101E3C00B4050020B0050020AC050020A80500204A
:101E4C00A4050020A00500209C050020980500207A
:101E5C00184B1A68D1075CBF01221A60164B1A681E
:101E6C00D2075CBF01221A60144B1A68D0075CBF02
:101E7C0001221A60124B1A68D1075CBF01221A604A
:101E8C00104B1A68D2075CBF01221A600E4B1A68FD
:101E9C00D0075CBF01221A600C4B1A68D1075CBFDB
:101EAC0001221A600A4B1A68D2075CBF01221A6021
:101EBC00704700BFE4050020E0050020DC05002091
:101ECC00D8050020D4050020D0050020CC0500202A
:101EDC00C8050020184B1A68D1075CBF01221A6094
:101EEC00164B1A68D2075CBF01221A60144B1A6891
:101EFC00D0075CBF01221A60124B1A68D1075CBF75
:101F0C0001221A60104B1A68D2075CBF01221A60BA
:101F1C000E4B1A68D0075CBF01221A600C4B1A6872
:101F2C00D1075CBF01221A600A4B1A68D2075CBF4A
:101F3C0001221A60704700BF040600200006002032
:101F4C00FC050020F8050020F4050020F005002019
:101F5C00EC050020E8050020244B1A68D0075CBF74
:101F6C0001221A60224B1A68D1075CBF01221A6049
:101F7C00204B1A68D2075CBF01221A601E4B1A68EC
:101F8C00D0075CBF01221A601C4B1A68D1075CBFDA
:101F9C0001221A601A4B1A68D2075CBF01221A6020
:101FAC00184B1A68D0075CBF01221A60164B1A68CE
:101FBC00D1075CBF01221A60144B1A68D2075CBFB0
:101FCC0001221A60124B1A68D0075CBF01221A60FA
:101FDC00104B1A68D1075CBF01221A600E4B1A68AD
:101FEC00D2075CBF01221A60704700BF3406002084
:101FFC00300600202C060020280600202406002095
:10200C00200600201C0600201806002014060020C4
:10201C00100600200C0600200806002010B5054C08
:10202C0013462CB10A4601460220AFF3008010BDC6
:10203C00204610BD0000000010B5431E0A4491421A
:10204C0004D011F8014B03F8014FF8E710BD03461B
:10205C000244934202D003F8011BFAE770470000D8
:10206C0038B5124B05461C68A36BD3B91820FEF784
:10207C00B9FF43F20E33A06303804AF6CD3343809D
:10208C0041F2342383804EF26D63C3804DF6EC63D2
:10209C000381052343810B23838101220023C0E9A3
:1020AC000423A36B00221D615A6138BD6800002017
:1020BC0010F8012B11F8013B012A28BF9A42F7D0E6
:1020CC00D01A7047034613F8012B002AFBD1181ABB
:1020DC00013870471D000A085D000A0889000A08CB
:1020EC008D000A08000000006E6F7700616C617251
:1020FC006D004C6F72656D20697073756D20646F27
:10210C006C6F722073697420616D65742C20636F21
:10211C006E7365637465747572206164697069733C
:10212C0063696E6720656C69742E204375726162F9
:10213C00697475722061646970697363696E672074
:10214C00616E746520736564206E696268207469C1
:10215C006E636964756E7420666575676961742E4B
:10216C00204D616563656E617320656E696D206DD0
:10217C00617373612C206672696E67696C6C6100A7
:10218C00676F6E6700706F730053656E736F7220AC
:10219C0076616C75653A20000000000000000000BC
:1021AC00C5000A08D1020A0839090A08D5120A081A
:1021BC0025070A088D070A088B050A0805060A0870
:1021CC004D080A087D060A0819030A089F030A0825
:1021DC00D30B0A0813018032118064260104B1026A
:1021EC000B14C0020800C10105C5024130C701C172
:1021FC00EC011B3A8155642A040000007F2B04007B
:10220C0000009F3601C8B70100F20100E08F2824BE
:10221C0022312B0E53A5421618121A140332E18FD9
:10222C00171B1D0E14112CA53D09272D252B3C32F7
:10223C0013800A2980FF000000000000000000004D
:10224C00000000000000000039090A08D5120A0835
:10225C00A1000A088D070A08AD080A08C9080A086F
:10226C004D080A08E3080A081B090A0837090A0876
:10227C00D30B0A0800FF000000000000000070F8FB
:10228C00A8F8D888700070F8A8F888D870000050AA
:10229C00F8F8F8702000002070F8F87020007050EA
:1022AC00F8A8F82070002070F8F8F82070000000F2
:1022BC00207070200000F8F8D88888D8F8F8000052
:1022CC00205050200000F8F8D8A8A8D8F8F800380A
:1022DC001868A0A040007088887020F8200078480A
:1022EC0078404040C000784878484858C00020A842
:1022FC0070D8D870A82080C0F0F8F0C08000081802
:10230C0078F8781808002070A820A8702000D8D879
:10231C00D8D8D800D80078A8A86828282800304831
:10232C005028104848300000000000F8F8002070D9
:10233C00A820A87020F8002070A8202020000020E1
:10234C002020A8702000002010F810200000002091
:10235C0040F84020000000808080F8000000005011
:10236C00F8F85000000000202070F8F8000000F889
:10237C00F870202000000000000000000000202069
:10238C002020200020005050500000000000505031
:10239C00F850F85050002078A07028F02000C0C8E9
:1023AC0010204098180040A0A040A8906800303041
:1023BC002040000000001020404040201000402031
:1023CC0010101020400020A870F870A820000020E9
:1023DC0020F82020000000000000303020400000D9
:1023EC0000F8000000000000000000303000000881
:1023FC00102040800000708898A8C8887000206069
:10240C00202020207000708808708080F800F80868
:10241C0010300888700010305090F8101000F880C0
:10242C00F00808887000384080F088887000F80840
:10243C000810204080007088887088887000708830
:10244C0088780810E0000000200020000000000048
:10245C002000202040000810204020100800000020
:10246C00F800F80000004020100810204000708890
:10247C000830200020007088A8B8B0807800205068
:10248C008888F8888800F08888F08888F000708840
:10249C00808080887000F08888888888F000F880B8
:1024AC0080F08080F800F88080F080808000788850
:1024BC00808098887800888888F8888888007020C0
:1024CC002020202070003810101010906000889090
:1024DC00A0C0A0908800808080808080F80088D880
:1024EC00A8A8A88888008888C8A8988888007088B8
:1024FC00888888887000F08888F0808080007088D8
:10250C008888A8906800F08888F0A090880070886F
:10251C00807008887000F8A820202020200088886F
:10252C0088888888700088888888885020008888E7
:10253C0088A8A8A8500088885020508888008888CF
:10254C00502020202000F80810704080F8007840BF
:10255C00404040407800008040201008000078087F
:10256C0008080808780020508800000000000000CF
:10257C0000000000F8006060201000000000000067
:10258C006010709078008080B0C888C8B0000000DF
:10259C007088808870000808689888986800000027
:1025AC007088F88070001028207020202000000017
:1025BC007098986808708080B0C88888880020005F
:1025CC00602020207000100010101090600080809F
:1025DC0090A0C0A09000602020202020700000005F
:1025EC00D0A8A8A8A8000000B0C88888880000005F
:1025FC007088888870000000B0C8C8B08080000067
:10260C006898986808080000B0C8808080000000B6
:10261C0078807008F0002020F8202028100000009E
:10262C0088888898680000008888885020000000FE
:10263C008888A8A85000000088502050880000000E
:10264C008888780888700000F8102040F800102066
:10265C00204020201000202020002020200040209E
:10266C0020102020400040A8100000000000207026
:10267C00D88888F800007088808088701060008886
:10268C0000888898680018007088F8807800F80036
:10269C006010709078008800601070907800C00016
:1026AC0060107090780030006010709078000078A6
:1026BC00C0C078103000F8007088F880780088006E
:1026CC007088F8807800C0007088F8807800280046
:1026DC0030101010380030483010101038006000E6
:1026EC003010101038005000205088F888882000D6
:1026FC00205088F888883000F080E080F0000000DE
:10270C00781078907800385090F8909098007088F5
:10271C00007088887000008800708888700000C085
:10272C00007088887000708800888898680000C0E5
:10273C000088889868004800484848380870880025
:10274C0070888888700088008888888870002020AD
:10275C00F8A0A0F82020305848E04048F800D8D81D
:10276C0070F820F82020E09090E090B89090182815
:10277C0020702020A0C01800601070907800180005
:10278C003010101038000018007088887000001885
:10279C000088889868000078007048484800F80065
:1027AC00C8E8B89888007090907800F8000070889D
:1027BC00887000F800002000206080887000000005
:1027CC0000F880800000000000F8080800008088F5
:1027DC0090B848982038808890A858B808082020CD
:1027EC00002020202000002850A05028000000A02D
:1027FC00502850A00000208820882088208850A8CD
:10280C0050A850A850A81010101010101010101034
:10281C001010F01010101010F010F01010102828DC
:10282C002828E828282800000000F828282800007C
:10283C00F010F01010102828E808E828282828287C
:10284C002828282828280000F808E82828282828DC
:10285C00E808F800000028282828F80000001010CC
:10286C00F010F000000000000000F010101010102C
:10287C0010101800000010101010F80000000000DC
:10288C000000F8101010101010101810101000008C
:10289C000000F800000010101010F81010101010AC
:1028AC00181018101010282828282828282828281C
:1028BC002820380000000000382028282828282844
:1028CC00E800F80000000000F800E8282828282874
:1028DC002820282828280000F800F80000002828C4
:1028EC00E800E82828281010F800F8000000282834
:1028FC002828F80000000000F800F8101010000064
:10290C000000F82828282828282838000000101053
:10291C0018101800000000001810181010100000FB
:10292C0000003828282828282828F82828281010BB
:10293C00F810F810101010101010F000000000002B
:10294C00000018101010F8F8F8F8F8F8F8F8000073
:10295C000000F8F8F8F8E0E0E0E0E0E0E0E018185B
:10296C00181818181818F8F8F8F8000000000000EB
:10297C00689090906800007098F098F0800000F8D3
:10298C0098808080800000F8505050505000F8889B
:10299C0040204088F8000000789090906000005033
:1029AC0050505068C00000F8A02020202000F820D3
:1029BC007088887020F8205088F8885020002050AB
:1029CC0088885050D80030403070888870000000E3
:1029DC000070A8A87000087098A8A8C870807080B3
:1029EC0080F080807000708888888888880000F863
:1029FC0000F800F800002020F8202000F80040200B
:102A0C0010204000F800102040201000F80038285A
:102A1C002020202020202020202020A0A0E03030CA
:102A2C0000F80030300000E8B800E8B8000070D8BA
:102A3C00D8700000000000000030300000000000E2
:102A4C0000003000000038202020A0A0602070483A
:102A5C004848480000007018306078000000000002
:102A6C007878787800000000000000000000207FDB
:102A7C00000000000000000000008080808080804A
:102A8C0000800000A0A0A00000000000000028288A
:102A9C00F85050F8A0A0000070A8A0702828A870CA
:102AAC00200062009400940068000B0014801480D5
:102ABC0023000000000030484830508C887400001F
:102ACC00808080000000000000002040808080801A
:102ADC00808040208040202020202020408040E02A
:102AEC0040A000000000000000002020F820200082
:102AFC00000000000000000000808080000000004A
:102B0C0000E0000000000000000000000080000059
:102B1C002020404040408080000070888888888851
:102B2C00887000002060A0202020202000007088E9
:102B3C000808102040F800007088083008088870D9
:102B4C0000001030505090F810100000784080F0C9
:102B5C00080888700000708880F0888888700000F1
:102B6C00F810102020404040000070888870888841
:102B7C0088700000708888887808887000000000D1
:102B8C008000000000800000000080000000008039
:102B9C00808000000870807008000000000000F8C1
:102BAC0000F8000000000000807008708000000039
:102BBC00708808102020002000001F0060804D400D
:102BCC009340A240A240A6809B0040403F8010282A
:102BDC002828447C82820000F88484FC848484F855
:102BEC00000038448080808044380000F088848461
:102BFC00848488F00000F88080F8808080F80000E1
:102C0C00F88080F0808080800000384482808E8242
:102C1C0044380000848484FC848484840000808094
:102C2C0080808080808000001010101010909060C8
:102C3C000000848890B0D0888884000080808080D8
:102C4C00808080F8000082C6C6AAAAAA92920000D0
:102C5C0084C4A4A494948C8400003844828282821C
:102C6C0044380000F0888888F08080800000384468
:102C7C008282829A443A0000F88484F8908888848E
:102C8C00000078848060180484780000F8202020EC
:102C9C002020202000008484848484848478000094
:102CAC008282444428281010000084208A204A4044
:102CBC004A40514051402080208000000000844850
:102CCC0048303048488400008244442810101010CA
:102CDC0000007C081010202040FC0000C080808088
:102CEC008080808080C08080404040402020000058
:102CFC00C04040404040404040C020505088000000
:102D0C0000000000000000000000000000FC8040FB
:102D1C0000000000000000000000708878889868AF
:102D2C0000008080B0C88888C8B00000000070889F
:102D3C00808088700000080868988888986800006F
:102D4C0000007088F880887000002040E04040400F
:102D5C0040400000000068988888986808F08080DF
:102D6C00B0C888888888000080008080808080803F
:102D7C00000040004040404040404080808090A097
:102D8C00C0A0A090000080808080808080800000A7
:102D9C000000BCD29292929200000000F0888888C9
:102DAC008888000000007088888888700000000007
:102DBC00B0C88888C8B080800000689888889868F7
:102DCC0008080000A0C0808080800000000070888F
:102DDC006010887000004040E040404040600000BF
:102DEC000000888888889868000000008888505007
:102DFC0020200000000000008880948055005500C1
:102E0C002200220000000000000088502020508882
:102E1C000000000088885050202020400000F8104E
:102E2C00202040F80000204040408040404040209E
:102E3C0080808080808080808080804040402040E6
:102E4C0040404080000000E8B00000000000020A92
:102E5C000000010A0A00030A1400050A1E00050AF4
:102E6C002800090A3200060A4600010A5000030A2B
:102E7C005A00030A6400030A6E00050A7800010A6E
:102E8C008200030A8C00010A9600030AA000050ABE
:102E9C00AA00030AB400050ABE00050AC800050A08
:102EAC00D200050ADC00050AE600050AF000050A56
:102EBC00FA00050A0401010A0E01010A1801050AAB
:102ECC002201050A2C01050A3601050A40010A0AED
:102EDC004A01070A5E01060A6801060A7201060A1F
:102EEC007C01050A8601050A9001070A9A01060A67
:102EFC00A401010AAE01040AB801060AC201050ABE
:102F0C00CC01070AD601060AE001070AEA01050A04
:102F1C00F401070AFE01060A0802060A1202050A53
:102F2C001C02060A2602070A30020B0A3A02060A9B
:102F3C004E02070A5802060A6202020A6C02030ACF
:102F4C007602020A8002050A8A02060A9402020A22
:102F5C009E02050AA802050AB202050ABC02050A6D
:102F6C00C602050AD002030ADA02050AE402050ABF
:102F7C00EE02010AF802020A0203040A0C03010A17
:102F8C001603070A2003050A2A03050A3403050A57
:102F9C003E03050A4803030A5203050A5C03030AAD
:102FAC006603050A7003050A7A03090A8403050AF5
:102FBC009803050AA203050AAC03030AB603010A27
:102FCC00C003030ACA03050AD403207F00000000D3
:102FDC000000000000000000808080808080008065
:102FEC00000000A0A0000000000000000000282845
:102FFC00FC2850FC505000002070A8A0603028A87D
:10300C00702020007E949868161929460000002034
:10301C0050502054888C720000008080000000000A
:10302C000000000000408080808080808080400014
:10303C00804040404040404040800040E0E0400044
:10304C00000000000000002020F8202000000000FC
:10305C0000000000000000004080000000000000A4
:10306C00E0000000000000000000000000008000F4
:10307C00000010202020404040808000002050881C
:10308C008888885020000000C040404040404040AC
:10309C0000000070888808102040F800000070883C
:1030AC000830088888700000000808182848FC08B8
:1030BC0008000000382040700808887000000010DC
:1030CC0020407088888870000000F8101020204084
:1030DC00408000000070888870888888700000002C
:1030EC00708888887010204000000000008000006C
:1030FC000000800000000000400000000040800044
:10310C000000000C7080700C000000000000FC003F
:10311C0000FC00000000000000C0380438C00000B3
:10312C0000007088087080780020000000003E00CD
:10313C0041009A80A480A4809B0041003E000000C6
:10314C0000000010282828447C4482000000C0A005
:10315C00A0E0909090E00000003C42808080804293
:10316C003C000000F0888484848488F0000000F81F
:10317C008080F8808080F8000000F08080F08080F3
:10318C0080800000003C4280808781423C0000002F
:10319C00848484FC8484848400000080808080800B
:1031AC008080800000001010101010109060000043
:1031BC00008890A0C0C0A090880000008080808013
:1031CC00808080F00000000041004100A280A280BD
:1031DC00A48094809480888000000000008484C4C3
:1031EC00A4948C84840000003C4281818181423C07
:1031FC00000000F08888F0808080800000003C4255
:10320C0081818189463D000000F08888F0A0909073
:10321C00880000006090804020109060000000F852
:10322C00202020202020200000008484848484849A
:10323C0084780000008244444428282810000000B0
:10324C0000888088805500550055005500220022CA
:10325C000000000000008888502020508888000062
:10326C00008244282810101010000000F8101020C4
:10327C00204040F8000000C08080808080808080EA
:10328C00C0008040402020100808040000C04040CE
:10329C00404040404040C000102828444482000078
:1032AC00000000000000000000000000FC80400056
:1032BC0000000000000000000000003A4682824638
:1032CC003A0000008080B8C48282C4B800000000BC
:1032DC000038448080443800000002023A46828262
:1032EC00463A00000000003844FC804438000000DE
:1032FC002040E040404040400000000000344C843E
:10330C00844C348870008080B0C88484848400002D
:10331C000080008080808080800000004000404061
:10332C0040404040408000808090A0C0C0A09000F1
:10333C000000808080808080808000000000000081
:10334C000000B300CC808880888088808880000052
:10335C000000000000B0C8848484840000000000D9
:10336C003048848448300000000000B8C48282C415
:10337C00B880800000003A468282463A0202000081
:10338C0000A0C08080808000000000006080402091
:10339C00A0400000004040E04040404040000000A1
:1033AC00000084848484483000000000008244447F
:1033BC0028281000000000000000008880890055BB
:1033CC000055002200220000000000000000885080
:1033DC0020205088000000000088485050302020E9
:1033EC0040000000F810202040F800000060404031
:1033FC0040804040404060008080808080808080A1
:10340C00808000C04040402040404040C000000050
:10341C000064980000000000207F00000000000005
:10342C000000000000008080808080808000800090
:10343C00000000A0A0A000000000000000000000A0
:10344C00110011007F8022002200FF004400440084
:10345C000000000000002078A0A070282828F02090
:10346C0020000200660094009C0068001B00148081
:10347C00348023000000000000000018283074D4B1
:10348C008C88740000000080808000000000000028
:10349C000000204040808080808080402000804060
:1034AC00402020202020204080000020F870D000F8
:1034BC000000000000000000002020F82020000088
:1034CC000000000000000000000040800000000030
:1034DC0000000000E0000000000000000000000000
:1034EC000000800000000810101020404080800078
:1034FC000000007088888888888870000000004070
:10350C00C04040404040E00000000070880810209F
:10351C004080F8000000007088087008088870006F
:10352C000000000818282848FC080800000000F8D3
:10353C0080F0880808887000000000102040F08897
:10354C0088887000000000FC08101020202040002B
:10355C0000000070888870888888700000000070F7
:10356C00888888781020C0000000000000800000CF
:10357C0000800000000000000040000000004080BF
:10358C0000000000002040804020000000000000EF
:10359C0000F00000F000000000000000008040205F
:1035AC0040800000000000F008081020400040009F
:1035BC0000003E0041009C80B680A6809B008000ED
:1035CC0041003E0000000000000000080814243CEC
:1035DC0044428200000000F0888890F08888F00057
:1035EC000000001C2440808080847800000000C013
:1035FC00B08884848488F000000000F88080F88013
:10360C008080F800000000F88080F08080808000CE
:10361C000000001C224080BE8284780000000084E0
:10362C008484FC8484848400000000F82020202002
:10363C002020F8000000003E080808088888780060
:10364C000000008890A0C0C0A090880000000080FE
:10365C00808080808080F00000000000220022002A
:10366C00220055005500550088808880000000001D
:10367C0000000082C2A2A2928A8682000000003C56
:10368C004282828282847800000000E090909090C8
:10369C00E08080000000003C42818181914A3E0321
:1036AC00010000E0909090E0A09088000000003CA9
:1036BC004040380404847800000000FE1010101004
:1036CC0010101000000000848484848484847800AA
:1036DC0000000088888850505050200000000000E6
:1036EC00842084204A404A4052805280228021000B
:1036FC0000000000000000824428101028448200C2
:10370C00000000844848283010202000000000FEF3
:10371C00040810204080FE000000E0808080808043
:10372C0080808080E00000808040402020201010AD
:10373C000000E0202020202020202020E0006060DD
:10374C0090000000000000000000000000000000DD
:10375C0000000000FE00804000000000000000009F
:10376C0000000000003848888888740000008080C1
:10377C0080F088888888F0000000000000304880C5
:10378C00808870000000080808788888888878008D
:10379C000000000000708890E08870000000182085
:1037AC0020F8202020202000000000000030488855
:1037BC008888780810E0808080B0C8888888880065
:1037CC00000000800080808080808000000000105D
:1037DC00001010101010101090608080808890A045
:1037EC00E090880000008080808080808080800055
:1037FC000000000000A4DA929292920000000000F7
:10380C0000B0C88888888800000000000070888894
:10381C00888870000000000000F088888888F0809C
:10382C0080800000003848888888780808080000E4
:10383C0000E0A080808080000000000000708040CC
:10384C002010E0000000004040E0404040404000BC
:10385C00000000000088888888887800000000003C
:10386C00008888505020200000000000009292B484
:10387C00B4544800000000000084483030488400F4
:10388C000000000000848848503020204040000098
:10389C0000F010204080F00000003040404040C05C
:1038AC0040404040300080808080808080808080DC
:1038BC008000C0202020203020202020C0000000CC
:1038CC000064E498000000000000020C0000010CF1
:1038DC000C00030C1800090C2400050C3C00090C0E
:1038EC004800060C6000010C6C00030C7800030C03
:1038FC008400050C9000050C9C00020CA800030C25
:10390C00B400010CC000050CCC00050CD800030C55
:10391C00E400050CF000050CFC00060C0801050C7D
:10392C001401050C2001060C2C01050C3801050CAA
:10393C004401010C5001020C5C01030C6801040CE5
:10394C007401030C8001050C8C01090C9801070C07
:10395C00B001050CBC01060CC801060CD401050C09
:10396C00E001050CEC01070CF801060C0402050C37
:10397C001002070C1C02050C2802040C3402090C62
:10398C004002070C5802070C6402040C7002080C6D
:10399C007C02050C8802060C9402070CA002060C93
:1039AC00AC02050CB8020B0CC402070CDC02060CB2
:1039BC00E802070CF402030C0003040C0C03030CC8
:1039CC001803040C2403070C3003020C3C03060CF4
:1039DC004803050C5403050C6003050C6C03050C23
:1039EC007803050C8403050C9003050C9C03010C57
:1039FC00A803040CB403050CC003010CCC03070C86
:103A0C00D803050CE403050CF003050CFC03050CB2
:103A1C000804030C1404040C2004030C2C04050CE3
:103A2C003804050C4404070C5004060C5C04060C0A
:103A3C006804040C7404040C8004010C8C04040C45
:103A4C009804060CA404020B0000010B0B00030BE2
:103A5C001600060B2100050B2C00080B3700070B7A
:103A6C004200010B4D00020B5800020B6300030BCC
:103A7C006E00050B7900020B8400030B8F00010B09
:103A8C009A00040BA500050BB000020BBB00050B44
:103A9C00C600050BD100060BDC00050BE700050B7F
:103AAC00F200050BFD00050B0801050B1301010BC2
:103ABC001E01020B2901060B3401060B3F01060BFC
:103ACC004A01050B5501090B6001070B7601040B2C
:103ADC008101070B8C01060B9701050BA201040B4E
:103AEC00AD01080BB801060BC301010BCE01040B91
:103AFC00D901050BE401040BEF01090BFA01060BCC
:103B0C001002080B1B02050B2602080B3102050BD9
:103B1C003C02040B4702050B5202060B5D02070B1D
:103B2C006802090B7302050B8902070B9402050B43
:103B3C009F02020BAA02060BB502020BC002070B76
:103B4C00CB02060BD602020BE102070BEC02070BB1
:103B5C00F702060B0203070B0D03060B1803030BEE
:103B6C002303060B2E03060B3903010B4403020B34
:103B7C004F03040B5A03010B6503090B7003060B6F
:103B8C008603060B9103070B9C03070BA703030B80
:103B9C00B203030BBD03030BC803060BD303070BC4
:103BAC00DE03090BE903050BFF03050B0A04050BE8
:103BBC001504030B2004010B2B04030B3604060B1A
:103BCC004104050800000508080005081000050858
:103BDC001800050820000508280005083000050815
:103BEC003800050840000508480005085000050885
:103BFC0058000508600005086800050870000508F5
:103C0C007800050880000508880005089000050864
:103C1C0098000508A0000508A8000508B0000508D4
:103C2C00B8000508C0000508C8000508D000050844
:103C3C00D8000508E0000508E8000508F0000508B4
:103C4C00F800050800010508080105081001050821
:103C5C001801050820010508280105083001050890
:103C6C003801050840010508480105085001050800
:103C7C005801050860010508680105087001050870
:103C8C0078010508800105088801050890010508E0
:103C9C0098010508A0010508A8010508B001050850
:103CAC00B8010508C0010508C8010508D0010508C0
:103CBC00D8010508E0010508E8010508F001050830
:103CCC00F80105080002050808020508100205089D
:103CDC00180205082002050828020508300205080C
:103CEC00380205084002050848020508500205087C
:103CFC0058020508600205086802050870020508EC
:103D0C00780205088002050888020508900205085B
:103D1C0098020508A0020508A8020508B0020508CB
:103D2C00B8020508C0020508C8020508D00205083B
:103D3C00D8020508E0020508E8020508F0020508AB
:103D4C00F802050800030508080305081003050818
:103D5C001803050820030508280305083003050887
:103D6C0038030508400305084803050850030508F7
:103D7C005803050860030508680305087003050867
:103D8C0078030508800305088803050890030508D7
:103D9C0098030508A0030508A8030508B003050847
:103DAC00B8030508C0030508C8030508D0030508B7
:103DBC00D8030508E0030508E8030508F003050827
:103DCC00F803050800040508080405081004050894
:103DDC001804050820040508280405083004050803
:103DEC003804050840040508480405085004050873
:103DFC0058040508600405086804050870040508E3
:103E0C007804050880040508880405089004050852
:103E1C0098040508A0040508A8040508B0040508C2
:103E2C00B8040508C0040508C8040508D004050832
:103E3C00D8040508E0040508E8040508F0040508A2
:103E4C00F80405080005050808050508100505080F
:103E5C00180505082005050828050508300505087E
:103E6C0038050508400505084805050850050508EE
:103E7C00580505086005050868050508700505085E
:103E8C0078050508800505088805050890050508CE
:103E9C0098050508A0050508A8050508B00505083E
:103EAC00B8050508C0050508C8050508D0050508AE
:103EBC00D8050508E0050508E8050508F00505081E
:103ECC00F80505080006050808060508100605088B
:103EDC0018060508200605082806050830060508FA
:103EEC00380605084006050848060508500605086A
:103EFC0058060508600605086806050870060508DA
:103F0C007806050880060508880605089006050849
:103F1C0098060508A0060508A8060508B0060508B9
:103F2C00B8060508C0060508C8060508D006050829
:103F3C00D8060508E0060508E8060508F006050899
:103F4C00F806050800070508080705081007050806
:103F5C001807050820070508280705083007050875
:103F6C0038070508400705084807050850070508E5
:103F7C005807050860070508680705087007050855
:103F8C0078070508800705088807050890070508C5
:103F9C0098070508A0070508A8070508B007050835
:103FAC00B8070508C0070508C8070508D0070508A5
:103FBC00D8070508E0070508E8070508F007050815
:103FCC00F807020C0000010C0C00030C1800060C86
:103FDC002400050C3000090C3C00080C5400010CAA
:103FEC006000030C6C00030C7800050C8400050CBD
:103FFC009000020C9C00030CA800010CB400030CF4
:10400C00C000050CCC00030CD800050CE400050C1A
:10401C00F000050CFC00050C0801050C1401050C46
:10402C002001050C2C01050C3801010C4401020C7B
:10403C005001050C5C01050C6801050C7401040CA5
:10404C008001090C8C01070CA401060CB001060CB4
:10405C00BC01070CC801060CD401060CE001070CCE
:10406C00EC01070CF801030C0402040C1002080C00
:10407C001C02060C2802090C3402070C4C02070C1B
:10408C005802060C6402070C7002070C7C02040C2C
:10409C008802070C9402070CA002070CAC020B0C54
:1040AC00B802070CD002070CDC02060CE802030C69
:1040BC00F402030C0003030C0C03040C1803060C91
:1040CC002403020C3003050C3C03050C4803040CC0
:1040DC005403050C6003040C6C03050C7803050CED
:1040EC008403060C9003030C9C03030CA803050C1F
:1040FC00B403030CC003090CCC03060CE403050C3D
:10410C00F003050CFC03050C0804040C1404030C4C
:10411C002004030C2C04060C3804060C4404080C74
:10412C005004050C5C04060C6804050C7404030CA8
:10413C008004010C8C04030C9804050CA404207F4F
:10414C0000000000000000000000000000808080E3
:10415C00808080008000000000A0A0A00000000073
:10416C000000000000242448FC48FC909000000053
:10417C002070A8A0603028A870200000000041002A
:10418C00A200A40048000900128022804100000017
:10419C0000000000001C242833D294897600000013
:1041AC0000808080000000000000000000204080A3
:1041BC0080808080804020000080402020202020B3
:1041CC00204080000020A870A82000000000000003
:1041DC000000002020F8202000000000000000005B
:1041EC0000000000C0408000000000000000E00063
:1041FC000000000000000000000000008000000033
:10420C0000202040404040808000000000708888E2
:10421C00888888887000000000C0404040404040C2
:10422C00E00000000070880808102048F80000002A
:10423C000070880830080808F000000000103050AA
:10424C005090F8101000000000384060100808086A
:10425C00F000000000186040B0C8888870000000B2
:10426C00007888081010102020000000007088884A
:10427C007050888870000000007088888878103032
:10428C00C000000000000000800000008000000062
:10429C000000000080000000C0408000000000080A
:1042AC00708070080000000000000000F800F800AA
:1042BC00000000000000008070087080000000000A
:1042CC0000609010204040004000000000001E00E4
:1042DC0021004E809280A480A480A700980040808A
:1042EC0021001E000010102828287C44EE0000003D
:1042FC0000F8444478444444F8000000003C4480F6
:10430C00808080443800000000F84442424242441D
:10431C00F800000000FC445070504044FC000000C9
:10432C0000FC445070504040E0000000003C4480D1
:10433C00808E84443800000000EE44447C444444A5
:10434C00EE00000000E0404040404040E000000033
:10435C000070202020202020C000000000EE4850DB
:10436C0060504844EF00000000E0404040404044B2
:10437C00FC0000000000E380630063005500550062
:10438C0055004900EB8000000000000000CE4464A2
:10439C0054544C44E400000000384482828282442D
:1043AC003800000000F8444444784040E00000002D
:1043BC0000384482828282443808060000F8444463
:1043CC0078504848E6000000007090804020109023
:1043DC00E000000000FE92101010101038000000D9
:1043EC0000EE4444444444443800000000EE44448D
:1043FC0028282810100000000000EEE04440444043
:10440C0024802A802A801100110000000000000086
:10441C0000EE442810102844EE00000000EE442862
:10442C00281010103800000000FC88102020408458
:10443C00FC00000000E08080808080808080E000B4
:10444C0000808040404040202000000000E0202000
:10445C00202020202020E0000060609090000000D0
:10446C000000000000000000000000000000FC0044
:10447C000080400000000000000000000000000070
:10448C00601070907800000000C0404070484848B0
:10449C003000000000000000709080807000000070
:1044AC000030101070909090780000000000000018
:1044BC006090F0807000000000384840E0404040C0
:1044CC00E00000000000000078906080F088700030
:1044DC0000C0404058684848EC0000000040000014
:1044EC00C0404040E0000000002000006020202080
:1044FC002020C00000C0404058506050D800000040
:10450C0000C0404040404040E0000000000000007F
:10451C0000000000DB006D0049004900ED80000048
:10452C000000000000000000D8684848EC000000C3
:10453C0000000000708888887000000000000000F7
:10454C00F04848487040E0000000000070909090E7
:10455C007010380000000000D0604040E000000007
:10456C000000000060806020C0000000000040409F
:10457C00E04040406000000000000000D84848487F
:10458C003C00000000000000DC485020200000002F
:10459C0000000000DB4A5A24240000000000000048
:1045AC00D8502050D800000000000000DC485030EB
:1045BC002020C00000000000F8902048F800000007
:1045CC0000204040408040404040200000808080DF
:1045DC00808080808080800000804040402040406F
:1045EC00404080000000000000E8B800000000001F
:1045FC000000000000000000AB100A08F5100A08CB
:10460C00CD100A08AD100A08D5100A08DD100A08EA
:10461C00E5100A08ED100A08000000000000000078
:10462C0041110A0831110A0833110A0866006C6E30
:10463C0000666E00636F64650064657461696C008C
:10464C000D0A00253031307520005D2000256400F6
:10465C002C200028293A2000205B00636F64652021
:10466C003D200025690064657461696C73203D20F0
:10467C0000626175640053657269616C0055534248
:10468C0053657269616C3100747970650070617288
:10469C00616D00636D6400696400686E640073741E
:1046AC00726D0066696C74006C766C0061646448B1
:1046BC00616E646C65720072656D6F766548616ED3
:1046CC00646C657200656E756D48616E646C6572C4
:1046DC0073004A534F4E53747265616D4C6F67484B
:1046EC00616E646C657200617070006E6F6E650057
:1046FC00747261636500696E666F007761726E003B
:10470C006572726F720070616E696300616C6C002F
:10471C00000000000000000009120A0813120A0829
:10472C001D120A0827120A0831120A083D120A083B
:10473C0049120A0855120A085D120A0867120A087B
:10474C0071120A08000000000000000017150A088A
:10475C0019150A0800081018202830385A00252B83
:10476C003033643A253032750025592D256D2D25B1
:10477C00645425483A254D3A2553257A00617363D4
:10478C0074696D650000000000000000000000006E
:10479C0069170A08B9170A08C7170A08D5120A08B0
:1047AC007D170A089F170A088B170A08B3170A08FF
:1047BC006B170A086F170A080000000000000000C1
:1047CC0071180A08C1180A08CF180A08D5120A0865
:1047DC00AD180A0873180A0889180A08BB180A08C1
:1047EC009F180A086D180A0800000000000000005D
:1047FC00B31A0A08A91A0A089F1A0A08111A0A08F1
:10480C00931A0A08871A0A087B1A0A08731A0A08E4
:10481C00691A0A085F1A0A081B1A0A080000000025
:10482C00000000000000000000000000000000007C
:10483C00000000000000000000000000000000006C
:10484C00000000000000000000000000000000005C
:10485C00000000000000000000000000000000004C
:10486C00000000000000000000000000000000003C
:10487C0000000000000000000000000043000000E9
:10488C00E1020A0889070A080B0C0A080F0C0A082F
:10489C00F9110A08C1120A0805140A083D170A087A
:1048AC0055170A08BD1A0A08151D0A08451D0A08DD
:1048BC00991D0A085D1E0A08E11E0A08651F0A08F0
:0448CC0000000000E8
:0448D00000000000E4
:1048D4000B00000089470A080000000028480A0865
:1048E40048480A0868480A08000000000000000060
:1048F400000000000000000088480A0800000000D2
:1049040000000000000000000000000000000000A3
:104914000000000000000000000000000000000093
:104924000000000000000000000000000000000083
:0C4934000000000000000000080000204F
:10494000FFFFFFFF00000102030405060708090A34
:104950000B0C0D0E0F101112131415161718191A2F
:084960001B1C1D1E1F20280076
:044968007856341237
:04000005080A001CC9
:00000001FF
